{
  "_format": "hh-sol-artifact-1",
  "contractName": "SecureGames",
  "sourceName": "contracts/SecureGames.sol",
  "abi": [
    {
      "inputs": [
        {
          "internalType": "address",
          "name": "_resolver",
          "type": "address"
        }
      ],
      "stateMutability": "nonpayable",
      "type": "constructor"
    },
    {
      "anonymous": false,
      "inputs": [
        {
          "indexed": true,
          "internalType": "bytes32",
          "name": "gameHash",
          "type": "bytes32"
        },
        {
          "indexed": false,
          "internalType": "string",
          "name": "gameId",
          "type": "string"
        },
        {
          "indexed": true,
          "internalType": "address",
          "name": "player",
          "type": "address"
        },
        {
          "indexed": false,
          "internalType": "bool",
          "name": "didWin",
          "type": "bool"
        },
        {
          "indexed": false,
          "internalType": "uint256",
          "name": "multiplierPercent",
          "type": "uint256"
        },
        {
          "indexed": false,
          "internalType": "uint256",
          "name": "winnings",
          "type": "uint256"
        },
        {
          "indexed": false,
          "internalType": "uint256",
          "name": "blockNumber",
          "type": "uint256"
        }
      ],
      "name": "GameResolved",
      "type": "event"
    },
    {
      "anonymous": false,
      "inputs": [
        {
          "indexed": true,
          "internalType": "bytes32",
          "name": "gameHash",
          "type": "bytes32"
        },
        {
          "indexed": false,
          "internalType": "string",
          "name": "gameId",
          "type": "string"
        },
        {
          "indexed": true,
          "internalType": "address",
          "name": "player",
          "type": "address"
        },
        {
          "indexed": false,
          "internalType": "uint256",
          "name": "amount",
          "type": "uint256"
        },
        {
          "indexed": false,
          "internalType": "string",
          "name": "gameType",
          "type": "string"
        },
        {
          "indexed": false,
          "internalType": "uint256",
          "name": "blockNumber",
          "type": "uint256"
        }
      ],
      "name": "GameStarted",
      "type": "event"
    },
    {
      "anonymous": false,
      "inputs": [
        {
          "indexed": true,
          "internalType": "address",
          "name": "oldResolver",
          "type": "address"
        },
        {
          "indexed": true,
          "internalType": "address",
          "name": "newResolver",
          "type": "address"
        }
      ],
      "name": "ResolverChanged",
      "type": "event"
    },
    {
      "anonymous": false,
      "inputs": [
        {
          "indexed": true,
          "internalType": "address",
          "name": "user",
          "type": "address"
        },
        {
          "indexed": false,
          "internalType": "uint256",
          "name": "blockNumber",
          "type": "uint256"
        },
        {
          "indexed": false,
          "internalType": "uint256",
          "name": "timestamp",
          "type": "uint256"
        }
      ],
      "name": "UserRegistered",
      "type": "event"
    },
    {
      "anonymous": false,
      "inputs": [
        {
          "indexed": true,
          "internalType": "address",
          "name": "player",
          "type": "address"
        },
        {
          "indexed": false,
          "internalType": "uint256",
          "name": "amount",
          "type": "uint256"
        }
      ],
      "name": "Withdrawn",
      "type": "event"
    },
    {
      "stateMutability": "payable",
      "type": "fallback"
    },
    {
      "inputs": [],
      "name": "getAllUsers",
      "outputs": [
        {
          "internalType": "address[]",
          "name": "",
          "type": "address[]"
        }
      ],
      "stateMutability": "view",
      "type": "function"
    },
    {
      "inputs": [],
      "name": "getContractStats",
      "outputs": [
        {
          "internalType": "uint256",
          "name": "totalUsers",
          "type": "uint256"
        },
        {
          "internalType": "uint256",
          "name": "totalBets",
          "type": "uint256"
        },
        {
          "internalType": "uint256",
          "name": "totalWinnings",
          "type": "uint256"
        },
        {
          "internalType": "uint256",
          "name": "totalGames",
          "type": "uint256"
        }
      ],
      "stateMutability": "view",
      "type": "function"
    },
    {
      "inputs": [
        {
          "internalType": "string",
          "name": "gameId",
          "type": "string"
        }
      ],
      "name": "getGameDetails",
      "outputs": [
        {
          "internalType": "string",
          "name": "id",
          "type": "string"
        },
        {
          "internalType": "address",
          "name": "player",
          "type": "address"
        },
        {
          "internalType": "uint256",
          "name": "amount",
          "type": "uint256"
        },
        {
          "internalType": "enum SecureGames.GameStatus",
          "name": "status",
          "type": "uint8"
        },
        {
          "internalType": "uint256",
          "name": "blockNumber",
          "type": "uint256"
        },
        {
          "internalType": "string",
          "name": "gameType",
          "type": "string"
        },
        {
          "internalType": "uint256",
          "name": "multiplierPercent",
          "type": "uint256"
        },
        {
          "internalType": "bool",
          "name": "existsFlag",
          "type": "bool"
        }
      ],
      "stateMutability": "view",
      "type": "function"
    },
    {
      "inputs": [],
      "name": "getPendingGames",
      "outputs": [
        {
          "internalType": "string[]",
          "name": "",
          "type": "string[]"
        }
      ],
      "stateMutability": "view",
      "type": "function"
    },
    {
      "inputs": [],
      "name": "getResolverAccount",
      "outputs": [
        {
          "internalType": "address",
          "name": "",
          "type": "address"
        }
      ],
      "stateMutability": "view",
      "type": "function"
    },
    {
      "inputs": [
        {
          "internalType": "address",
          "name": "account",
          "type": "address"
        }
      ],
      "name": "getUserGameStats",
      "outputs": [
        {
          "components": [
            {
              "internalType": "string",
              "name": "gameType",
              "type": "string"
            },
            {
              "internalType": "uint256",
              "name": "totalBets",
              "type": "uint256"
            },
            {
              "internalType": "uint256",
              "name": "totalWon",
              "type": "uint256"
            },
            {
              "internalType": "uint256",
              "name": "totalLost",
              "type": "uint256"
            },
            {
              "internalType": "uint256",
              "name": "timestamp",
              "type": "uint256"
            },
            {
              "internalType": "uint256",
              "name": "gamesPlayed",
              "type": "uint256"
            },
            {
              "internalType": "uint256",
              "name": "gamesWon",
              "type": "uint256"
            },
            {
              "internalType": "uint256",
              "name": "bestMultiplierPercent",
              "type": "uint256"
            },
            {
              "internalType": "uint256",
              "name": "totalMultiplierPercent",
              "type": "uint256"
            }
          ],
          "internalType": "struct SecureGames.GameTypeStats[]",
          "name": "",
          "type": "tuple[]"
        }
      ],
      "stateMutability": "view",
      "type": "function"
    },
    {
      "inputs": [
        {
          "internalType": "address",
          "name": "account",
          "type": "address"
        }
      ],
      "name": "getUserStats",
      "outputs": [
        {
          "internalType": "uint256",
          "name": "totalBet",
          "type": "uint256"
        },
        {
          "internalType": "uint256",
          "name": "totalWon",
          "type": "uint256"
        },
        {
          "internalType": "uint256",
          "name": "totalLost",
          "type": "uint256"
        },
        {
          "internalType": "uint256",
          "name": "withdrawableBalance",
          "type": "uint256"
        },
        {
          "internalType": "uint256",
          "name": "gamesPlayed",
          "type": "uint256"
        },
        {
          "internalType": "uint256",
          "name": "gamesWon",
          "type": "uint256"
        },
        {
          "internalType": "uint256",
          "name": "joinBlock",
          "type": "uint256"
        },
        {
          "internalType": "uint256",
          "name": "joinTimestamp",
          "type": "uint256"
        },
        {
          "internalType": "uint256",
          "name": "lastPlayBlock",
          "type": "uint256"
        },
        {
          "internalType": "uint256",
          "name": "lastPlayTimestamp",
          "type": "uint256"
        }
      ],
      "stateMutability": "view",
      "type": "function"
    },
    {
      "inputs": [],
      "name": "owner",
      "outputs": [
        {
          "internalType": "address",
          "name": "",
          "type": "address"
        }
      ],
      "stateMutability": "view",
      "type": "function"
    },
    {
      "inputs": [
        {
          "internalType": "string",
          "name": "gameId",
          "type": "string"
        },
        {
          "internalType": "bool",
          "name": "didWin",
          "type": "bool"
        },
        {
          "internalType": "uint256",
          "name": "multiplierPercent",
          "type": "uint256"
        }
      ],
      "name": "resolveGame",
      "outputs": [],
      "stateMutability": "nonpayable",
      "type": "function"
    },
    {
      "inputs": [],
      "name": "resolver",
      "outputs": [
        {
          "internalType": "address",
          "name": "",
          "type": "address"
        }
      ],
      "stateMutability": "view",
      "type": "function"
    },
    {
      "inputs": [
        {
          "internalType": "address",
          "name": "_resolver",
          "type": "address"
        }
      ],
      "name": "setResolver",
      "outputs": [],
      "stateMutability": "nonpayable",
      "type": "function"
    },
    {
      "inputs": [
        {
          "internalType": "string",
          "name": "gameId",
          "type": "string"
        },
        {
          "internalType": "string",
          "name": "gameType",
          "type": "string"
        }
      ],
      "name": "startGame",
      "outputs": [],
      "stateMutability": "payable",
      "type": "function"
    },
    {
      "inputs": [],
      "name": "withdraw",
      "outputs": [],
      "stateMutability": "nonpayable",
      "type": "function"
    },
    {
      "stateMutability": "payable",
      "type": "receive"
    }
  ],
  "bytecode": "0x60806040526001600c553480156200001657600080fd5b506040516200220a3803806200220a8339810160408190526200003991620000e2565b6001600160a01b038116620000885760405162461bcd60e51b81526020600482015260116024820152701c995cdbdb1d995c881c995c5d5a5c9959607a1b604482015260640160405180910390fd5b600080546001600160a01b031990811633178255600180546001600160a01b0385169216821790556040519091907fb6da02d7f709053860937d05075ac827880d84a5ec2267ed2b8a76714302f4fc908290a35062000114565b600060208284031215620000f557600080fd5b81516001600160a01b03811681146200010d57600080fd5b9392505050565b6120e680620001246000396000f3fe6080604052600436106100c65760003560e01c80634e543b261161007f578063dfe6b5d611610059578063dfe6b5d614610336578063e2842d791461036b578063eba5d8e11461038d578063ff6f4bc1146103ad57610118565b80634e543b26146102d85780636b377cd7146102f85780638da5cb5b1461031657610118565b8063044c96e41461015057806304f3bcec146101655780632ab9cc30146101a25780633ccfd60b146101d657806344329791146101eb5780634e43603a1461021857610118565b366101185760405162461bcd60e51b815260206004820152601860248201527f53656e64207769746820737461727447616d65206f6e6c79000000000000000060448201526064015b60405180910390fd5b60405162461bcd60e51b815260206004820152600d60248201526c139bdd081cdd5c1c1bdc9d1959609a1b604482015260640161010f565b61016361015e3660046118f1565b6103cf565b005b34801561017157600080fd5b50600154610185906001600160a01b031681565b6040516001600160a01b0390911681526020015b60405180910390f35b3480156101ae57600080fd5b506101c26101bd36600461195d565b6107f0565b604051610199989796959493929190611a05565b3480156101e257600080fd5b506101636109b0565b3480156101f757600080fd5b5061020b610206366004611a8a565b610b22565b6040516101999190611aba565b34801561022457600080fd5b5061028e610233366004611a8a565b6001600160a01b03166000908152600660208190526040909120805460018201546002830154600384015460048501546005860154968601546007870154600888015460099098015496999598949793969295919390929091565b604080519a8b5260208b0199909952978901969096526060880194909452608087019290925260a086015260c085015260e084015261010083015261012082015261014001610199565b3480156102e457600080fd5b506101636102f3366004611a8a565b610d62565b34801561030457600080fd5b506001546001600160a01b0316610185565b34801561032257600080fd5b50600054610185906001600160a01b031681565b34801561034257600080fd5b5061034b610e44565b604080519485526020850193909352918301526060820152608001610199565b34801561037757600080fd5b50610380610f18565b6040516101999190611b79565b34801561039957600080fd5b506101636103a8366004611bc6565b610f7a565b3480156103b957600080fd5b506103c26116ec565b6040516101999190611c28565b8261040e5760405162461bcd60e51b815260206004820152600f60248201526e19d85b595259081c995c5d5a5c9959608a1b604482015260640161010f565b600034116104535760405162461bcd60e51b81526020600482015260126024820152714174746163682045544820746f20706c617960701b604482015260640161010f565b60008484604051602001610468929190611c8a565b60408051601f1981840301815291815281516020928301206000818152600390935291205490915060ff16156104d85760405162461bcd60e51b815260206004820152601560248201527467616d65496420616c72656164792065786973747360581b604482015260640161010f565b6104e0611847565b85858080601f0160208091040260200160405190810160405280939291908181526020018383808284376000920182905250938552505033602084015250346040830152606082015243608082015282156105715783838080601f01602080910402602001604051908101604052809392919081815260200183838082843760009201919091525061059292505050565b604051806040016040528060078152602001663ab735b737bbb760c91b8152505b60a0820152606460c0820152600160e08201526000828152600260205260409020815182919081906105c49082611d39565b5060208201518160010160006101000a8154816001600160a01b0302191690836001600160a01b031602179055506040820151816002015560608201518160030160006101000a81548160ff02191690836002811115610626576106266119ef565b02179055506080820151600482015560a082015160058201906106499082611d39565b5060c0820151600682015560e0909101516007909101805491151560ff199283161790556000838152600360209081526040808320805490941660019081179094556004805494850181557f8a35acfbc15ff81a39ae7d344fd709f28e8600b4aa8c65c6b64bfe7fe36bd19b9094018690559254858352600582528383205533825260089052205460ff1661078357336000818152600860209081526040808320805460ff191660019081179091556007805491820181557fa66cc928b5edb82af9bd49922954155ab7b0942694bea4ce44661d9a8736c68890910180546001600160a01b03191686179055600680845293829020439481018590554291018190558151938452918301919091527f47c8e83729a89f8b0c23b722e4c21f48295ddfcd683910c564e11e6b6037d01c910160405180910390a25b336000818152600660205260409081902043600882018190554260099092019190915560a0840151915185927f388e28502e7f06f9c917caa0381c8bfe93305459fef24a09a4307b27d0bfbaf9926107e0928c928c923492611df9565b60405180910390a3505050505050565b6060600080600080606060008060008a8a604051602001610812929190611c8a565b60408051601f19818403018152918152815160209283012060008181526002938490529190912060018101549281015460038201546004830154600684015460078501548554969850949687966001600160a01b039091169560ff94851694600589019392911690889061088590611cb0565b80601f01602080910402602001604051908101604052809291908181526020018280546108b190611cb0565b80156108fe5780601f106108d3576101008083540402835291602001916108fe565b820191906000526020600020905b8154815290600101906020018083116108e157829003601f168201915b5050505050975082805461091190611cb0565b80601f016020809104026020016040519081016040528092919081815260200182805461093d90611cb0565b801561098a5780601f1061095f5761010080835404028352916020019161098a565b820191906000526020600020905b81548152906001019060200180831161096d57829003601f168201915b505050505092509950995099509950995099509950995050509295985092959890939650565b600c546001146109ee5760405162461bcd60e51b81526020600482015260096024820152681499595b9d1c985b9d60ba1b604482015260640161010f565b6000600c8190553381526006602052604090206003015480610a485760405162461bcd60e51b81526020600482015260136024820152724e6f7468696e6720746f20776974686472617760681b604482015260640161010f565b336000818152600660205260408082206003018290555190919083908381818185875af1925050503d8060008114610a9c576040519150601f19603f3d011682016040523d82523d6000602084013e610aa1565b606091505b5050905080610ae45760405162461bcd60e51b815260206004820152600f60248201526e151c985b9cd9995c8819985a5b1959608a1b604482015260640161010f565b60405182815233907f7084f5476618d8e60b11ef0d7d3f06914655adb8793e28ff7f018d4c76d505d59060200160405180910390a250506001600c55565b6001600160a01b0381166000908152600a6020526040812080546060929067ffffffffffffffff811115610b5857610b58611c9a565b604051908082528060200260200182016040528015610bd857816020015b610bc56040518061012001604052806060815260200160008152602001600081526020016000815260200160008152602001600081526020016000815260200160008152602001600081525090565b815260200190600190039081610b765790505b50905060005b8254811015610d5a57600085848381548110610bfc57610bfc611e50565b90600052602060002001604051602001610c17929190611e66565b60408051601f19818403018152828252805160209182012060008181526009909252908290206101208401909252815490935082908290610c5790611cb0565b80601f0160208091040260200160405190810160405280929190818152602001828054610c8390611cb0565b8015610cd05780601f10610ca557610100808354040283529160200191610cd0565b820191906000526020600020905b815481529060010190602001808311610cb357829003601f168201915b5050505050815260200160018201548152602001600282015481526020016003820154815260200160048201548152602001600582015481526020016006820154815260200160078201548152602001600882015481525050838381518110610d3b57610d3b611e50565b6020026020010181905250508080610d5290611f14565b915050610bde565b509392505050565b6000546001600160a01b03163314610da95760405162461bcd60e51b815260206004820152600a60248201526927b7363c9037bbb732b960b11b604482015260640161010f565b6001600160a01b038116610df25760405162461bcd60e51b815260206004820152601060248201526f34b73b30b634b2103932b9b7b63b32b960811b604482015260640161010f565b600180546001600160a01b038381166001600160a01b0319831681179093556040519116919082907fb6da02d7f709053860937d05075ac827880d84a5ec2267ed2b8a76714302f4fc90600090a35050565b6000808080808080805b600754811015610f0757600060078281548110610e6d57610e6d611e50565b60009182526020808320909101546001600160a01b03168083526006909152604090912054909150610e9f9086611f2d565b6001600160a01b038216600090815260066020526040902060010154909550610ec89085611f2d565b6001600160a01b038216600090815260066020526040902060040154909450610ef19084611f2d565b9250508080610eff90611f14565b915050610e4e565b506007549792965090945092509050565b60606007805480602002602001604051908101604052809291908181526020018280548015610f7057602002820191906000526020600020905b81546001600160a01b03168152600190910190602001808311610f52575b5050505050905090565b6001546001600160a01b03163314610fc45760405162461bcd60e51b815260206004820152600d60248201526c27b7363c903932b9b7b63b32b960991b604482015260640161010f565b826110035760405162461bcd60e51b815260206004820152600f60248201526e19d85b595259081c995c5d5a5c9959608a1b604482015260640161010f565b60008484604051602001611018929190611c8a565b60408051601f1981840301815291815281516020928301206000818152600390935291205490915060ff166110805760405162461bcd60e51b815260206004820152600e60248201526d11d85b59481b9bdd08199bdd5b9960921b604482015260640161010f565b6000818152600260205260409020600781015460ff166110d45760405162461bcd60e51b815260206004820152600f60248201526e47616d65206e6f742065786973747360881b604482015260640161010f565b6000600382015460ff1660028111156110ef576110ef6119ef565b146111345760405162461bcd60e51b815260206004820152601560248201527411d85b5948185b1c9958591e481c995cdbdb1d9959605a1b604482015260640161010f565b60068101839055600181015460058201805485926001600160a01b03169160009161115e90611cb0565b1590506111f75783600501805461117490611cb0565b80601f01602080910402602001604051908101604052809291908181526020018280546111a090611cb0565b80156111ed5780601f106111c2576101008083540402835291602001916111ed565b820191906000526020600020905b8154815290600101906020018083116111d057829003601f168201915b5050505050611218565b604051806040016040528060078152602001663ab735b737bbb760c91b8152505b60028501546001600160a01b038416600090815260066020526040812080549394509192611247908490611f2d565b90915550506001600160a01b0382166000908152600660205260408120600401805460019290611278908490611f2d565b90915550506040516000906112939084908490602001611f46565b60408051601f19818403018152918152815160209283012060008181526009909352912080549192509081906112c890611cb0565b90506000036112de57806112dc8482611d39565b505b85600201548160010160008282546112f69190611f2d565b9250508190555060018160050160008282546113129190611f2d565b925050819055508481600801600082825461132d9190611f2d565b9091555050600781015485111561134657600781018590555b426004820155600089156114a05760648688600201546113669190611f7e565b6113709190611f95565b6001600160a01b0386166000908152600660205260408120600101805492935083929091906113a0908490611f2d565b90915550506001600160a01b038516600090815260066020526040812060030180548392906113d0908490611f2d565b90915550506001600160a01b0385166000908152600660205260408120600501805460019290611401908490611f2d565b925050819055508082600201600082825461141c9190611f2d565b9250508190555060018260060160008282546114389190611f2d565b909155505060038701805460ff191660019081179091556040516001600160a01b038716918a917fec1e33d3a8b70291c4b7b0b17cad54577c22cbbe52f0f99f78de2a92767bca0191611493918c91908c9088904390612034565b60405180910390a361155d565b866002015460066000876001600160a01b03166001600160a01b0316815260200190815260200160002060020160008282546114dc9190611f2d565b909155505060028701546003830180546000906114fa908490611f2d565b909155505060038701805460ff191660021790556040516001600160a01b0386169089907fec1e33d3a8b70291c4b7b0b17cad54577c22cbbe52f0f99f78de2a92767bca0190611554908b906000908c9082904390612034565b60405180910390a35b6001600160a01b0385166000908152600b602052604090819020905161158490869061206b565b9081526040519081900360200190205460ff16611617576001600160a01b0385166000908152600b6020526040908190209051600191906115c690879061206b565b9081526040805160209281900383019020805460ff1916931515939093179092556001600160a01b0387166000908152600a825291822080546001810182559083529120016116158582611d39565b505b60008881526005602052604090205480156116dd57600480549060009061163f600184612087565b8154811061164f5761164f611e50565b906000526020600020015490508183146116a257806004611671600186612087565b8154811061168157611681611e50565b60009182526020808320909101929092558281526005909152604090208390555b60048054806116b3576116b361209a565b6000828152602080822083016000199081018390559092019092558c825260059052604081205550505b50505050505050505050505050565b60045460609060008167ffffffffffffffff81111561170d5761170d611c9a565b60405190808252806020026020018201604052801561174057816020015b606081526020019060019003908161172b5790505b50905060005b82811015611840576000600260006004848154811061176757611767611e50565b90600052602060002001548152602001908152602001600020905080600001805461179190611cb0565b80601f01602080910402602001604051908101604052809291908181526020018280546117bd90611cb0565b801561180a5780601f106117df5761010080835404028352916020019161180a565b820191906000526020600020905b8154815290600101906020018083116117ed57829003601f168201915b505050505083838151811061182157611821611e50565b602002602001018190525050808061183890611f14565b915050611746565b5092915050565b6040518061010001604052806060815260200160006001600160a01b031681526020016000815260200160006002811115611884576118846119ef565b81526020016000815260200160608152602001600081526020016000151581525090565b60008083601f8401126118ba57600080fd5b50813567ffffffffffffffff8111156118d257600080fd5b6020830191508360208285010111156118ea57600080fd5b9250929050565b6000806000806040858703121561190757600080fd5b843567ffffffffffffffff8082111561191f57600080fd5b61192b888389016118a8565b9096509450602087013591508082111561194457600080fd5b50611951878288016118a8565b95989497509550505050565b6000806020838503121561197057600080fd5b823567ffffffffffffffff81111561198757600080fd5b611993858286016118a8565b90969095509350505050565b60005b838110156119ba5781810151838201526020016119a2565b50506000910152565b600081518084526119db81602086016020860161199f565b601f01601f19169290920160200192915050565b634e487b7160e01b600052602160045260246000fd5b6000610100808352611a198184018c6119c3565b6001600160a01b038b166020850152604084018a9052905060038810611a4f57634e487b7160e01b600052602160045260246000fd5b87606084015286608084015282810360a0840152611a6d81876119c3565b60c0840195909552505090151560e0909101529695505050505050565b600060208284031215611a9c57600080fd5b81356001600160a01b0381168114611ab357600080fd5b9392505050565b60006020808301818452808551808352604092508286019150828160051b87010184880160005b83811015611b6b57603f1989840301855281516101208151818652611b08828701826119c3565b838b0151878c0152898401518a880152606080850151908801526080808501519088015260a0808501519088015260c0808501519088015260e0808501519088015261010093840151939096019290925250509386019390860190600101611ae1565b509098975050505050505050565b6020808252825182820181905260009190848201906040850190845b81811015611bba5783516001600160a01b031683529284019291840191600101611b95565b50909695505050505050565b60008060008060608587031215611bdc57600080fd5b843567ffffffffffffffff811115611bf357600080fd5b611bff878288016118a8565b90955093505060208501358015158114611c1857600080fd5b9396929550929360400135925050565b6000602080830181845280855180835260408601915060408160051b870101925083870160005b82811015611c7d57603f19888603018452611c6b8583516119c3565b94509285019290850190600101611c4f565b5092979650505050505050565b8183823760009101908152919050565b634e487b7160e01b600052604160045260246000fd5b600181811c90821680611cc457607f821691505b602082108103611ce457634e487b7160e01b600052602260045260246000fd5b50919050565b601f821115611d3457600081815260208120601f850160051c81016020861015611d115750805b601f850160051c820191505b81811015611d3057828155600101611d1d565b5050505b505050565b815167ffffffffffffffff811115611d5357611d53611c9a565b611d6781611d618454611cb0565b84611cea565b602080601f831160018114611d9c5760008415611d845750858301515b600019600386901b1c1916600185901b178555611d30565b600085815260208120601f198616915b82811015611dcb57888601518255948401946001909101908401611dac565b5085821015611de95787850151600019600388901b60f8161c191681555b5050505050600190811b01905550565b60808152846080820152848660a0830137600060a086830101526000601f19601f870116820185602084015260a0838203016040840152611e3d60a08201866119c3565b9150508260608301529695505050505050565b634e487b7160e01b600052603260045260246000fd5b6bffffffffffffffffffffffff198360601b1681526000601460008454611e8c81611cb0565b60018281168015611ea45760018114611ebd57611ef0565b60ff198416888701528215158302880186019450611ef0565b8860005260208060002060005b85811015611ee55781548b82018a0152908401908201611eca565b505050858389010194505b509298975050505050505050565b634e487b7160e01b600052601160045260246000fd5b600060018201611f2657611f26611efe565b5060010190565b80820180821115611f4057611f40611efe565b92915050565b6bffffffffffffffffffffffff198360601b16815260008251611f7081601485016020870161199f565b919091016014019392505050565b8082028115828204841417611f4057611f40611efe565b600082611fb257634e487b7160e01b600052601260045260246000fd5b500490565b60008154611fc481611cb0565b808552602060018381168015611fe15760018114611ffb57612029565b60ff1985168884015283151560051b880183019550612029565b866000528260002060005b858110156120215781548a8201860152908301908401612006565b890184019650505b505050505092915050565b60a08152600061204760a0830188611fb7565b95151560208301525060408101939093526060830191909152608090910152919050565b6000825161207d81846020870161199f565b9190910192915050565b81810381811115611f4057611f40611efe565b634e487b7160e01b600052603160045260246000fdfea2646970667358221220c4ad47e24428641f6c0fb40349a7f641e7d39602399bd24324464bb0005c292564736f6c63430008130033",
  "linkReferences": {},
  "deployedLinkReferences": {}
}