{
  "_format": "hh-sol-artifact-1",
  "contractName": "SecureGames",
  "sourceName": "contracts/SecureGames.sol",
  "abi": [
    {
      "inputs": [
        {
          "internalType": "address",
          "name": "_resolverAccountId",
          "type": "address"
        }
      ],
      "stateMutability": "nonpayable",
      "type": "constructor"
    },
    {
      "anonymous": false,
      "inputs": [
        {
          "indexed": true,
          "internalType": "string",
          "name": "gameId",
          "type": "string"
        },
        {
          "indexed": true,
          "internalType": "address",
          "name": "player",
          "type": "address"
        },
        {
          "indexed": false,
          "internalType": "bool",
          "name": "didWin",
          "type": "bool"
        },
        {
          "indexed": false,
          "internalType": "uint256",
          "name": "amount",
          "type": "uint256"
        },
        {
          "indexed": false,
          "internalType": "uint256",
          "name": "winnings",
          "type": "uint256"
        },
        {
          "indexed": false,
          "internalType": "uint256",
          "name": "multiplierPercent",
          "type": "uint256"
        }
      ],
      "name": "GameResolved",
      "type": "event"
    },
    {
      "anonymous": false,
      "inputs": [
        {
          "indexed": true,
          "internalType": "string",
          "name": "gameId",
          "type": "string"
        },
        {
          "indexed": true,
          "internalType": "address",
          "name": "player",
          "type": "address"
        },
        {
          "indexed": false,
          "internalType": "uint256",
          "name": "amount",
          "type": "uint256"
        },
        {
          "indexed": false,
          "internalType": "string",
          "name": "gameType",
          "type": "string"
        },
        {
          "indexed": false,
          "internalType": "uint256",
          "name": "blockHeight",
          "type": "uint256"
        }
      ],
      "name": "GameStarted",
      "type": "event"
    },
    {
      "anonymous": false,
      "inputs": [
        {
          "indexed": true,
          "internalType": "address",
          "name": "player",
          "type": "address"
        },
        {
          "indexed": false,
          "internalType": "uint256",
          "name": "amount",
          "type": "uint256"
        }
      ],
      "name": "Withdrawal",
      "type": "event"
    },
    {
      "inputs": [],
      "name": "emergencyWithdraw",
      "outputs": [],
      "stateMutability": "nonpayable",
      "type": "function"
    },
    {
      "inputs": [
        {
          "internalType": "string",
          "name": "",
          "type": "string"
        }
      ],
      "name": "games",
      "outputs": [
        {
          "internalType": "address",
          "name": "player",
          "type": "address"
        },
        {
          "internalType": "uint256",
          "name": "amount",
          "type": "uint256"
        },
        {
          "internalType": "enum SecureGames.GameStatus",
          "name": "status",
          "type": "uint8"
        },
        {
          "internalType": "uint256",
          "name": "blockHeight",
          "type": "uint256"
        },
        {
          "internalType": "string",
          "name": "gameType",
          "type": "string"
        },
        {
          "internalType": "uint256",
          "name": "multiplierPercent",
          "type": "uint256"
        }
      ],
      "stateMutability": "view",
      "type": "function"
    },
    {
      "inputs": [
        {
          "internalType": "uint256",
          "name": "start",
          "type": "uint256"
        },
        {
          "internalType": "uint256",
          "name": "limit",
          "type": "uint256"
        }
      ],
      "name": "getAllUsers",
      "outputs": [
        {
          "internalType": "address[]",
          "name": "",
          "type": "address[]"
        }
      ],
      "stateMutability": "view",
      "type": "function"
    },
    {
      "inputs": [],
      "name": "getContractBalance",
      "outputs": [
        {
          "internalType": "uint256",
          "name": "",
          "type": "uint256"
        }
      ],
      "stateMutability": "view",
      "type": "function"
    },
    {
      "inputs": [],
      "name": "getContractStats",
      "outputs": [
        {
          "internalType": "uint256",
          "name": "totalUsers",
          "type": "uint256"
        },
        {
          "internalType": "uint256",
          "name": "totalBets",
          "type": "uint256"
        },
        {
          "internalType": "uint256",
          "name": "totalWinnings",
          "type": "uint256"
        },
        {
          "internalType": "uint256",
          "name": "totalGames",
          "type": "uint256"
        }
      ],
      "stateMutability": "view",
      "type": "function"
    },
    {
      "inputs": [
        {
          "internalType": "string",
          "name": "gameId",
          "type": "string"
        }
      ],
      "name": "getGameDetails",
      "outputs": [
        {
          "components": [
            {
              "internalType": "address",
              "name": "player",
              "type": "address"
            },
            {
              "internalType": "uint256",
              "name": "amount",
              "type": "uint256"
            },
            {
              "internalType": "enum SecureGames.GameStatus",
              "name": "status",
              "type": "uint8"
            },
            {
              "internalType": "uint256",
              "name": "blockHeight",
              "type": "uint256"
            },
            {
              "internalType": "string",
              "name": "gameType",
              "type": "string"
            },
            {
              "internalType": "uint256",
              "name": "multiplierPercent",
              "type": "uint256"
            }
          ],
          "internalType": "struct SecureGames.Game",
          "name": "",
          "type": "tuple"
        }
      ],
      "stateMutability": "view",
      "type": "function"
    },
    {
      "inputs": [],
      "name": "getPendingGames",
      "outputs": [
        {
          "internalType": "string[]",
          "name": "",
          "type": "string[]"
        }
      ],
      "stateMutability": "view",
      "type": "function"
    },
    {
      "inputs": [],
      "name": "getResolverAccount",
      "outputs": [
        {
          "internalType": "address",
          "name": "",
          "type": "address"
        }
      ],
      "stateMutability": "view",
      "type": "function"
    },
    {
      "inputs": [],
      "name": "getTotalUsers",
      "outputs": [
        {
          "internalType": "uint256",
          "name": "",
          "type": "uint256"
        }
      ],
      "stateMutability": "view",
      "type": "function"
    },
    {
      "inputs": [
        {
          "internalType": "address",
          "name": "accountId",
          "type": "address"
        },
        {
          "internalType": "string",
          "name": "gameType",
          "type": "string"
        }
      ],
      "name": "getUserGameStats",
      "outputs": [
        {
          "components": [
            {
              "internalType": "string",
              "name": "gameType",
              "type": "string"
            },
            {
              "internalType": "uint256",
              "name": "totalBets",
              "type": "uint256"
            },
            {
              "internalType": "uint256",
              "name": "totalWon",
              "type": "uint256"
            },
            {
              "internalType": "uint256",
              "name": "totalLost",
              "type": "uint256"
            },
            {
              "internalType": "uint256",
              "name": "gamesPlayed",
              "type": "uint256"
            },
            {
              "internalType": "uint256",
              "name": "gamesWon",
              "type": "uint256"
            },
            {
              "internalType": "uint256",
              "name": "bestMultiplierPercent",
              "type": "uint256"
            },
            {
              "internalType": "uint256",
              "name": "totalMultiplierPercent",
              "type": "uint256"
            }
          ],
          "internalType": "struct SecureGames.GameTypeStats",
          "name": "",
          "type": "tuple"
        }
      ],
      "stateMutability": "view",
      "type": "function"
    },
    {
      "inputs": [
        {
          "internalType": "address",
          "name": "accountId",
          "type": "address"
        }
      ],
      "name": "getUserStats",
      "outputs": [
        {
          "components": [
            {
              "internalType": "uint256",
              "name": "totalBet",
              "type": "uint256"
            },
            {
              "internalType": "uint256",
              "name": "totalWon",
              "type": "uint256"
            },
            {
              "internalType": "uint256",
              "name": "totalLost",
              "type": "uint256"
            },
            {
              "internalType": "uint256",
              "name": "withdrawableBalance",
              "type": "uint256"
            },
            {
              "internalType": "uint256",
              "name": "gamesPlayed",
              "type": "uint256"
            },
            {
              "internalType": "uint256",
              "name": "gamesWon",
              "type": "uint256"
            },
            {
              "internalType": "uint256",
              "name": "joinBlock",
              "type": "uint256"
            },
            {
              "internalType": "uint256",
              "name": "lastPlayBlock",
              "type": "uint256"
            }
          ],
          "internalType": "struct SecureGames.UserStats",
          "name": "",
          "type": "tuple"
        }
      ],
      "stateMutability": "view",
      "type": "function"
    },
    {
      "inputs": [],
      "name": "owner",
      "outputs": [
        {
          "internalType": "address",
          "name": "",
          "type": "address"
        }
      ],
      "stateMutability": "view",
      "type": "function"
    },
    {
      "inputs": [
        {
          "internalType": "string",
          "name": "gameId",
          "type": "string"
        },
        {
          "internalType": "bool",
          "name": "didWin",
          "type": "bool"
        },
        {
          "internalType": "uint256",
          "name": "multiplierPercent",
          "type": "uint256"
        }
      ],
      "name": "resolveGame",
      "outputs": [],
      "stateMutability": "nonpayable",
      "type": "function"
    },
    {
      "inputs": [],
      "name": "resolverAccountId",
      "outputs": [
        {
          "internalType": "address",
          "name": "",
          "type": "address"
        }
      ],
      "stateMutability": "view",
      "type": "function"
    },
    {
      "inputs": [
        {
          "internalType": "string",
          "name": "gameId",
          "type": "string"
        },
        {
          "internalType": "string",
          "name": "gameType",
          "type": "string"
        }
      ],
      "name": "startGame",
      "outputs": [],
      "stateMutability": "payable",
      "type": "function"
    },
    {
      "inputs": [
        {
          "internalType": "address",
          "name": "newResolver",
          "type": "address"
        }
      ],
      "name": "updateResolver",
      "outputs": [],
      "stateMutability": "nonpayable",
      "type": "function"
    },
    {
      "inputs": [
        {
          "internalType": "address",
          "name": "",
          "type": "address"
        }
      ],
      "name": "users",
      "outputs": [
        {
          "internalType": "uint256",
          "name": "totalBet",
          "type": "uint256"
        },
        {
          "internalType": "uint256",
          "name": "totalWon",
          "type": "uint256"
        },
        {
          "internalType": "uint256",
          "name": "totalLost",
          "type": "uint256"
        },
        {
          "internalType": "uint256",
          "name": "withdrawableBalance",
          "type": "uint256"
        },
        {
          "internalType": "uint256",
          "name": "gamesPlayed",
          "type": "uint256"
        },
        {
          "internalType": "uint256",
          "name": "gamesWon",
          "type": "uint256"
        },
        {
          "internalType": "uint256",
          "name": "joinBlock",
          "type": "uint256"
        },
        {
          "internalType": "uint256",
          "name": "lastPlayBlock",
          "type": "uint256"
        }
      ],
      "stateMutability": "view",
      "type": "function"
    },
    {
      "inputs": [],
      "name": "withdraw",
      "outputs": [],
      "stateMutability": "nonpayable",
      "type": "function"
    },
    {
      "stateMutability": "payable",
      "type": "receive"
    }
  ],
  "bytecode": "0x60806040523480156200001157600080fd5b50604051620021ae380380620021ae8339810160408190526200003491620000c3565b6001600160a01b0381166200008f5760405162461bcd60e51b815260206004820152601960248201527f5265736f6c766572206164647265737320726571756972656400000000000000604482015260640160405180910390fd5b60018054336001600160a01b031991821617909155600080549091166001600160a01b0392909216919091179055620000f5565b600060208284031215620000d657600080fd5b81516001600160a01b0381168114620000ee57600080fd5b9392505050565b6120a980620001056000396000f3fe60806040526004361061010d5760003560e01c806381a6239111610095578063db2e21bc11610064578063db2e21bc146103cc578063dfe6b5d6146103e1578063e6fe39ed14610416578063eba5d8e114610436578063ff6f4bc11461045657600080fd5b806381a62391146102cc5780638da5cb5b146102f95780639be572f614610319578063a87430ba1461032e57600080fd5b80634ff113e9116100dc5780634ff113e9146101fa5780636ae6034f146102275780636b377cd71461025f5780636d20931a1461027d5780636f9fb98a146102af57600080fd5b8063044c96e4146101195780632ab9cc301461012e5780633ccfd60b146101645780634e43603a1461017957600080fd5b3661011457005b600080fd5b61012c6101273660046119e3565b610478565b005b34801561013a57600080fd5b5061014e610149366004611a47565b6106f2565b60405161015b9190611b0c565b60405180910390f35b34801561017057600080fd5b5061012c61084c565b34801561018557600080fd5b50610199610194366004611b93565b61096d565b60405161015b9190600061010082019050825182526020830151602083015260408301516040830152606083015160608301526080830151608083015260a083015160a083015260c083015160c083015260e083015160e083015292915050565b34801561020657600080fd5b5061021a610215366004611bb5565b610a29565b60405161015b9190611bd7565b34801561023357600080fd5b50600054610247906001600160a01b031681565b6040516001600160a01b03909116815260200161015b565b34801561026b57600080fd5b506000546001600160a01b0316610247565b34801561028957600080fd5b5061029d610298366004611a47565b610b39565b60405161015b96959493929190611c24565b3480156102bb57600080fd5b50475b60405190815260200161015b565b3480156102d857600080fd5b506102ec6102e7366004611c73565b610c14565b60405161015b9190611cb7565b34801561030557600080fd5b50600154610247906001600160a01b031681565b34801561032557600080fd5b506005546102be565b34801561033a57600080fd5b50610391610349366004611b93565b60026020528060005260406000206000915090508060000154908060010154908060020154908060030154908060040154908060050154908060060154908060070154905088565b604080519889526020890197909752958701949094526060860192909252608085015260a084015260c083015260e08201526101000161015b565b3480156103d857600080fd5b5061012c610d6a565b3480156103ed57600080fd5b506103f6610efa565b60408051948552602085019390935291830152606082015260800161015b565b34801561042257600080fd5b5061012c610431366004611b93565b610fed565b34801561044257600080fd5b5061012c610451366004611d28565b6110ba565b34801561046257600080fd5b5061046b611562565b60405161015b9190611d87565b600034116104c25760405162461bcd60e51b81526020600482015260126024820152714174746163682045544820746f20706c617960701b60448201526064015b60405180910390fd5b60008251116105055760405162461bcd60e51b815260206004820152600f60248201526e19d85b595259081c995c5d5a5c9959608a1b60448201526064016104b9565b60006001600160a01b03166003836040516105209190611de9565b908152604051908190036020019020546001600160a01b03161461057e5760405162461bcd60e51b815260206004820152601560248201527467616d65496420616c72656164792065786973747360581b60448201526064016104b9565b80516000036105a757506040805180820190915260078152663ab735b737bbb760c91b60208201525b6040805160c0810182523381523460208201529081016000815260200143815260200182815260200160648152506003836040516105e59190611de9565b9081526040805160209281900383019020835181546001600160a01b0319166001600160a01b039091161781559183015160018084019190915590830151600280840180549293909260ff191691849081111561064457610644611a84565b021790555060608201516003820155608082015160048201906106679082611e8e565b5060a0820151816005015590505061067e8261163b565b6106873361169b565b336000818152600260205260409081902043600790910155516106ab908490611de9565b60405180910390207f7c354fedb300a8a916051148d0525f6d89fb4d8050fb230e6e36718cfda81de73484436040516106e693929190611f4e565b60405180910390a35050565b61072b6040805160c081018252600080825260208201819052909182019081526020016000815260200160608152602001600081525090565b60038260405161073b9190611de9565b90815260408051918290036020908101832060c08401835280546001600160a01b03168452600181015491840191909152600280820154919284019160ff169081111561078a5761078a611a84565b600281111561079b5761079b611a84565b8152602001600382015481526020016004820180546107b990611e05565b80601f01602080910402602001604051908101604052809291908181526020018280546107e590611e05565b80156108325780601f1061080757610100808354040283529160200191610832565b820191906000526020600020905b81548152906001019060200180831161081557829003601f168201915b505050505081526020016005820154815250509050919050565b3360009081526002602052604090206003810154806108a35760405162461bcd60e51b81526020600482015260136024820152724e6f7468696e6720746f20776974686472617760681b60448201526064016104b9565b600060038301819055604051339083908381818185875af1925050503d80600081146108eb576040519150601f19603f3d011682016040523d82523d6000602084013e6108f0565b606091505b50509050806109335760405162461bcd60e51b815260206004820152600f60248201526e151c985b9cd9995c8819985a5b1959608a1b60448201526064016104b9565b60405182815233907f7fcf532c15f0a6db0bd6d0e038bea71d30d808c7d98cb3bf7268a95bf5081b659060200160405180910390a2505050565b6109b560405180610100016040528060008152602001600081526020016000815260200160008152602001600081526020016000815260200160008152602001600081525090565b506001600160a01b03166000908152600260208181526040928390208351610100810185528154815260018201549281019290925291820154928101929092526003810154606083015260048101546080830152600581015460a0830152600681015460c08301526007015460e082015290565b60606000610a378385611f8d565b600554909150811115610a4957506005545b6000848211610a59576000610a63565b610a638583611fa0565b905060008167ffffffffffffffff811115610a8057610a80611940565b604051908082528060200260200182016040528015610aa9578160200160208202803683370190505b50905060005b82811015610b2d576005610ac38289611f8d565b81548110610ad357610ad3611fb3565b9060005260206000200160009054906101000a90046001600160a01b0316828281518110610b0357610b03611fb3565b6001600160a01b039092166020928302919091019091015280610b2581611fc9565b915050610aaf565b50925050505b92915050565b805160208183018101805160038083529383019290940191909120929052815460018301546002840154928401546004850180546001600160a01b0390941695929460ff1693919291610b8b90611e05565b80601f0160208091040260200160405190810160405280929190818152602001828054610bb790611e05565b8015610c045780601f10610bd957610100808354040283529160200191610c04565b820191906000526020600020905b815481529060010190602001808311610be757829003601f168201915b5050505050908060050154905086565b610c5c60405180610100016040528060608152602001600081526020016000815260200160008152602001600081526020016000815260200160008152602001600081525090565b6000610c688484611731565b90506004600082815260200190815260200160002060405180610100016040529081600082018054610c9990611e05565b80601f0160208091040260200160405190810160405280929190818152602001828054610cc590611e05565b8015610d125780601f10610ce757610100808354040283529160200191610d12565b820191906000526020600020905b815481529060010190602001808311610cf557829003601f168201915b5050505050815260200160018201548152602001600282015481526020016003820154815260200160048201548152602001600582015481526020016006820154815260200160078201548152505091505092915050565b6001546001600160a01b03163314610dbf5760405162461bcd60e51b81526020600482015260186024820152774f6e6c79206f776e65722063616e2063616c6c207468697360401b60448201526064016104b9565b60075415610e1a5760405162461bcd60e51b815260206004820152602260248201527f43616e6e6f7420776974686472617720776974682070656e64696e672067616d604482015261657360f01b60648201526084016104b9565b4780610e615760405162461bcd60e51b81526020600482015260166024820152754e6f2062616c616e636520746f20776974686472617760501b60448201526064016104b9565b6001546040516000916001600160a01b03169083908381818185875af1925050503d8060008114610eae576040519150601f19603f3d011682016040523d82523d6000602084013e610eb3565b606091505b5050905080610ef65760405162461bcd60e51b815260206004820152600f60248201526e151c985b9cd9995c8819985a5b1959608a1b60448201526064016104b9565b5050565b60055460008080805b600554811015610fe657600060058281548110610f2257610f22611fb3565b60009182526020808320909101546001600160a01b03168083526002808352604093849020845161010081018652815480825260018301549582019590955291810154948201949094526003840154606082015260048401546080820152600584015460a0820152600684015460c082015260079093015460e08401529250610fab9087611f8d565b9550806020015185610fbd9190611f8d565b9450806080015184610fcf9190611f8d565b935050508080610fde90611fc9565b915050610f03565b5090919293565b6001546001600160a01b031633146110425760405162461bcd60e51b81526020600482015260186024820152774f6e6c79206f776e65722063616e2063616c6c207468697360401b60448201526064016104b9565b6001600160a01b0381166110985760405162461bcd60e51b815260206004820152601860248201527f496e76616c6964207265736f6c7665722061646472657373000000000000000060448201526064016104b9565b600080546001600160a01b0319166001600160a01b0392909216919091179055565b6000546001600160a01b031633146111145760405162461bcd60e51b815260206004820152601b60248201527f4f6e6c79207265736f6c7665722063616e2063616c6c2074686973000000000060448201526064016104b9565b60008351116111575760405162461bcd60e51b815260206004820152600f60248201526e19d85b595259081c995c5d5a5c9959608a1b60448201526064016104b9565b60006003846040516111699190611de9565b90815260405190819003602001902080549091506001600160a01b03166111c35760405162461bcd60e51b815260206004820152600e60248201526d11d85b59481b9bdd08199bdd5b9960921b60448201526064016104b9565b600060028083015460ff16908111156111de576111de611a84565b146112235760405162461bcd60e51b815260206004820152601560248201527411d85b5948185b1c9958591e481c995cdbdb1d9959605a1b60448201526064016104b9565b8160000361123057606491505b6005810182905580546004820180546001600160a01b03909216916000919061125890611e05565b80601f016020809104026020016040519081016040528092919081815260200182805461128490611e05565b80156112d15780601f106112a6576101008083540402835291602001916112d1565b820191906000526020600020905b8154815290600101906020018083116112b457829003601f168201915b5050506001600160a01b0385166000908152600260205260408120600188015481549596509094909350849250611309908490611f8d565b9250508190555060018160040160008282546113259190611f8d565b90915550600090506113378484611731565b6000818152600460205260409020805491925090819061135690611e05565b905060000361136c578061136a8582611e8e565b505b85600101548160010160008282546113849190611f8d565b9250508190555060018160040160008282546113a09190611f8d565b92505081905550868160070160008282546113bb9190611f8d565b909155505060068101548711156113d457600681018790555b600088156114955760648888600101546113ee9190611fe2565b6113f89190611ff9565b90508084600101600082825461140e9190611f8d565b92505081905550808460030160008282546114299190611f8d565b9250508190555060018460050160008282546114459190611f8d565b92505081905550808260020160008282546114609190611f8d565b92505081905550600182600501600082825461147c9190611f8d565b909155505060028701805460ff191660011790556114e1565b86600101548460020160008282546114ad9190611f8d565b909155505060018701546003830180546000906114cb908490611f8d565b90915550506002878101805460ff191690911790555b6114ea8a611764565b856001600160a01b03168a6040516115029190611de9565b6040805191829003822060018b01548d151584526020840152908201849052606082018b9052907fe9abb33fc8213ec09348030a851b9c8b31be3fff92d760204aca028fe1a8aa2e9060800160405180910390a350505050505050505050565b60606007805480602002602001604051908101604052809291908181526020016000905b828210156116325783829060005260206000200180546115a590611e05565b80601f01602080910402602001604051908101604052809291908181526020018280546115d190611e05565b801561161e5780601f106115f35761010080835404028352916020019161161e565b820191906000526020600020905b81548152906001019060200180831161160157829003601f168201915b505050505081526020019060010190611586565b50505050905090565b60075460405160089061164f908490611de9565b90815260405190819003602001902055600780546001810182556000919091527fa66cc928b5edb82af9bd49922954155ab7b0942694bea4ce44661d9a8736c68801610ef68282611e8e565b6001600160a01b03811660009081526006602052604090205460ff1661172e576005805460018082019092557f036b6384b5eca791c62761152d0c79bb0604c104a5fb6f4eb0703f3154bb3db00180546001600160a01b0319166001600160a01b0384169081179091556000908152600660208181526040808420805460ff191690951790945560029052919020439101555b50565b6000828260405160200161174692919061201b565b60405160208183030381529060405280519060200120905092915050565b60006008826040516117769190611de9565b90815260200160405180910390205490506000600160078054905061179b9190611fa0565b905080821461189c576000600782815481106117b9576117b9611fb3565b9060005260206000200180546117ce90611e05565b80601f01602080910402602001604051908101604052809291908181526020018280546117fa90611e05565b80156118475780601f1061181c57610100808354040283529160200191611847565b820191906000526020600020905b81548152906001019060200180831161182a57829003601f168201915b50505050509050806007848154811061186257611862611fb3565b9060005260206000200190816118789190611e8e565b508260088260405161188a9190611de9565b90815260405190819003602001902055505b60078054806118ad576118ad61205d565b6001900381819060005260206000200160006118c991906118f2565b90556008836040516118db9190611de9565b908152602001604051809103902060009055505050565b5080546118fe90611e05565b6000825580601f1061190e575050565b601f01602090049060005260206000209081019061172e91905b8082111561193c5760008155600101611928565b5090565b634e487b7160e01b600052604160045260246000fd5b600082601f83011261196757600080fd5b813567ffffffffffffffff8082111561198257611982611940565b604051601f8301601f19908116603f011681019082821181831017156119aa576119aa611940565b816040528381528660208588010111156119c357600080fd5b836020870160208301376000602085830101528094505050505092915050565b600080604083850312156119f657600080fd5b823567ffffffffffffffff80821115611a0e57600080fd5b611a1a86838701611956565b93506020850135915080821115611a3057600080fd5b50611a3d85828601611956565b9150509250929050565b600060208284031215611a5957600080fd5b813567ffffffffffffffff811115611a7057600080fd5b611a7c84828501611956565b949350505050565b634e487b7160e01b600052602160045260246000fd5b60038110611ab857634e487b7160e01b600052602160045260246000fd5b9052565b60005b83811015611ad7578181015183820152602001611abf565b50506000910152565b60008151808452611af8816020860160208601611abc565b601f01601f19169290920160200192915050565b6020815260018060a01b0382511660208201526020820151604082015260006040830151611b3d6060840182611a9a565b5060608301516080830152608083015160c060a0840152611b6160e0840182611ae0565b905060a084015160c08401528091505092915050565b80356001600160a01b0381168114611b8e57600080fd5b919050565b600060208284031215611ba557600080fd5b611bae82611b77565b9392505050565b60008060408385031215611bc857600080fd5b50508035926020909101359150565b6020808252825182820181905260009190848201906040850190845b81811015611c185783516001600160a01b031683529284019291840191600101611bf3565b50909695505050505050565b6001600160a01b038716815260208101869052611c446040820186611a9a565b83606082015260c060808201526000611c6060c0830185611ae0565b90508260a0830152979650505050505050565b60008060408385031215611c8657600080fd5b611c8f83611b77565b9150602083013567ffffffffffffffff811115611cab57600080fd5b611a3d85828601611956565b6020815260008251610100806020850152611cd6610120850183611ae0565b9150602085015160408501526040850151606085015260608501516080850152608085015160a085015260a085015160c085015260c085015160e085015260e085015181850152508091505092915050565b600080600060608486031215611d3d57600080fd5b833567ffffffffffffffff811115611d5457600080fd5b611d6086828701611956565b93505060208401358015158114611d7657600080fd5b929592945050506040919091013590565b6000602080830181845280855180835260408601915060408160051b870101925083870160005b82811015611ddc57603f19888603018452611dca858351611ae0565b94509285019290850190600101611dae565b5092979650505050505050565b60008251611dfb818460208701611abc565b9190910192915050565b600181811c90821680611e1957607f821691505b602082108103611e3957634e487b7160e01b600052602260045260246000fd5b50919050565b601f821115611e8957600081815260208120601f850160051c81016020861015611e665750805b601f850160051c820191505b81811015611e8557828155600101611e72565b5050505b505050565b815167ffffffffffffffff811115611ea857611ea8611940565b611ebc81611eb68454611e05565b84611e3f565b602080601f831160018114611ef15760008415611ed95750858301515b600019600386901b1c1916600185901b178555611e85565b600085815260208120601f198616915b82811015611f2057888601518255948401946001909101908401611f01565b5085821015611f3e5787850151600019600388901b60f8161c191681555b5050505050600190811b01905550565b838152606060208201526000611f676060830185611ae0565b9050826040830152949350505050565b634e487b7160e01b600052601160045260246000fd5b80820180821115610b3357610b33611f77565b81810381811115610b3357610b33611f77565b634e487b7160e01b600052603260045260246000fd5b600060018201611fdb57611fdb611f77565b5060010190565b8082028115828204841417610b3357610b33611f77565b60008261201657634e487b7160e01b600052601260045260246000fd5b500490565b6bffffffffffffffffffffffff198360601b168152601f60fa1b60148201526000825161204f816015850160208701611abc565b919091016015019392505050565b634e487b7160e01b600052603160045260246000fdfea2646970667358221220c7d967b8fe4a04dee28ffa808a7ceb34db31ffef09329781777d6ee6217d7ac064736f6c63430008130033",
  "linkReferences": {},
  "deployedLinkReferences": {}
}